{
	"data": {
		"bytecode": {
			"linkReferences": {},
			"object": "6080604052731b02da8cb0d097eb8d57a175b88c7d8b479975066000806101000a81548173ffffffffffffffffffffffffffffffffffffffff021916908373ffffffffffffffffffffffffffffffffffffffff16021790555060008054906101000a900473ffffffffffffffffffffffffffffffffffffffff16600160006101000a81548173ffffffffffffffffffffffffffffffffffffffff021916908373ffffffffffffffffffffffffffffffffffffffff1602179055503480156100c557600080fd5b506108ca806100d56000396000f3fe608060405234801561001057600080fd5b50600436106100415760003560e01c80631732cded14610046578063df791e5014610050578063fd829a231461006c575b600080fd5b61004e61008a565b005b61006a60048036038101906100659190610459565b6100d9565b005b610074610341565b604051610081919061060c565b60405180910390f35b60007315f878888b534b18a3c0a465845774a4cf259ce990506000734252017a3262b40e9567250133b542bad79fd523905060006706f05b59d3b2000090506100d48383836100d9565b505050565b60008390506000600267ffffffffffffffff8111156100fb576100fa6107fb565b5b6040519080825280602002602001820160405280156101295781602001602082028036833780820191505090505b5090508481600081518110610141576101406107cc565b5b602002602001019073ffffffffffffffffffffffffffffffffffffffff16908173ffffffffffffffffffffffffffffffffffffffff168152505083816001815181106101905761018f6107cc565b5b602002602001019073ffffffffffffffffffffffffffffffffffffffff16908173ffffffffffffffffffffffffffffffffffffffff16815250508173ffffffffffffffffffffffffffffffffffffffff1663095ea7b360008054906101000a900473ffffffffffffffffffffffffffffffffffffffff16856040518363ffffffff1660e01b81526004016102259291906105e3565b602060405180830381600087803b15801561023f57600080fd5b505af1158015610253573d6000803e3d6000fd5b505050506040513d601f19601f8201168201806040525081019061027791906104f5565b506000429050600160009054906101000a900473ffffffffffffffffffffffffffffffffffffffff1673ffffffffffffffffffffffffffffffffffffffff166338ed17398560008530866040518663ffffffff1660e01b81526004016102e1959493929190610627565b600060405180830381600087803b1580156102fb57600080fd5b505af115801561030f573d6000803e3d6000fd5b505050506040513d6000823e3d601f19601f8201168201806040525081019061033891906104ac565b50505050505050565b600160009054906101000a900473ffffffffffffffffffffffffffffffffffffffff1681565b600061037a610375846106a6565b610681565b9050808382526020820190508285602086028201111561039d5761039c61082f565b5b60005b858110156103cd57816103b38882610444565b8452602084019350602083019250506001810190506103a0565b5050509392505050565b6000813590506103e68161084f565b92915050565b600082601f8301126104015761040061082a565b5b8151610411848260208601610367565b91505092915050565b60008151905061042981610866565b92915050565b60008135905061043e8161087d565b92915050565b6000815190506104538161087d565b92915050565b60008060006060848603121561047257610471610839565b5b6000610480868287016103d7565b9350506020610491868287016103d7565b92505060406104a28682870161042f565b9150509250925092565b6000602082840312156104c2576104c1610839565b5b600082015167ffffffffffffffff8111156104e0576104df610834565b5b6104ec848285016103ec565b91505092915050565b60006020828403121561050b5761050a610839565b5b60006105198482850161041a565b91505092915050565b600061052e838361053a565b60208301905092915050565b6105438161070b565b82525050565b6105528161070b565b82525050565b6000610563826106e2565b61056d81856106fa565b9350610578836106d2565b8060005b838110156105a95781516105908882610522565b975061059b836106ed565b92505060018101905061057c565b5085935050505092915050565b6105bf81610753565b82525050565b6105ce81610765565b82525050565b6105dd81610749565b82525050565b60006040820190506105f86000830185610549565b61060560208301846105d4565b9392505050565b600060208201905061062160008301846105b6565b92915050565b600060a08201905061063c60008301886105d4565b61064960208301876105c5565b818103604083015261065b8186610558565b905061066a6060830185610549565b61067760808301846105d4565b9695505050505050565b600061068b61069c565b9050610697828261079b565b919050565b6000604051905090565b600067ffffffffffffffff8211156106c1576106c06107fb565b5b602082029050602081019050919050565b6000819050602082019050919050565b600081519050919050565b6000602082019050919050565b600082825260208201905092915050565b600061071682610729565b9050919050565b60008115159050919050565b600073ffffffffffffffffffffffffffffffffffffffff82169050919050565b6000819050919050565b600061075e82610777565b9050919050565b600061077082610749565b9050919050565b600061078282610789565b9050919050565b600061079482610729565b9050919050565b6107a48261083e565b810181811067ffffffffffffffff821117156107c3576107c26107fb565b5b80604052505050565b7f4e487b7100000000000000000000000000000000000000000000000000000000600052603260045260246000fd5b7f4e487b7100000000000000000000000000000000000000000000000000000000600052604160045260246000fd5b600080fd5b600080fd5b600080fd5b600080fd5b6000601f19601f8301169050919050565b6108588161070b565b811461086357600080fd5b50565b61086f8161071d565b811461087a57600080fd5b50565b61088681610749565b811461089157600080fd5b5056fea26469706673582212204d1a1256285b5fb89c4c01fe900f639ac0c4446ca0c0656b4e65f56842754df564736f6c63430008070033",
			"opcodes": "PUSH1 0x80 PUSH1 0x40 MSTORE PUSH20 0x1B02DA8CB0D097EB8D57A175B88C7D8B47997506 PUSH1 0x0 DUP1 PUSH2 0x100 EXP DUP2 SLOAD DUP2 PUSH20 0xFFFFFFFFFFFFFFFFFFFFFFFFFFFFFFFFFFFFFFFF MUL NOT AND SWAP1 DUP4 PUSH20 0xFFFFFFFFFFFFFFFFFFFFFFFFFFFFFFFFFFFFFFFF AND MUL OR SWAP1 SSTORE POP PUSH1 0x0 DUP1 SLOAD SWAP1 PUSH2 0x100 EXP SWAP1 DIV PUSH20 0xFFFFFFFFFFFFFFFFFFFFFFFFFFFFFFFFFFFFFFFF AND PUSH1 0x1 PUSH1 0x0 PUSH2 0x100 EXP DUP2 SLOAD DUP2 PUSH20 0xFFFFFFFFFFFFFFFFFFFFFFFFFFFFFFFFFFFFFFFF MUL NOT AND SWAP1 DUP4 PUSH20 0xFFFFFFFFFFFFFFFFFFFFFFFFFFFFFFFFFFFFFFFF AND MUL OR SWAP1 SSTORE POP CALLVALUE DUP1 ISZERO PUSH2 0xC5 JUMPI PUSH1 0x0 DUP1 REVERT JUMPDEST POP PUSH2 0x8CA DUP1 PUSH2 0xD5 PUSH1 0x0 CODECOPY PUSH1 0x0 RETURN INVALID PUSH1 0x80 PUSH1 0x40 MSTORE CALLVALUE DUP1 ISZERO PUSH2 0x10 JUMPI PUSH1 0x0 DUP1 REVERT JUMPDEST POP PUSH1 0x4 CALLDATASIZE LT PUSH2 0x41 JUMPI PUSH1 0x0 CALLDATALOAD PUSH1 0xE0 SHR DUP1 PUSH4 0x1732CDED EQ PUSH2 0x46 JUMPI DUP1 PUSH4 0xDF791E50 EQ PUSH2 0x50 JUMPI DUP1 PUSH4 0xFD829A23 EQ PUSH2 0x6C JUMPI JUMPDEST PUSH1 0x0 DUP1 REVERT JUMPDEST PUSH2 0x4E PUSH2 0x8A JUMP JUMPDEST STOP JUMPDEST PUSH2 0x6A PUSH1 0x4 DUP1 CALLDATASIZE SUB DUP2 ADD SWAP1 PUSH2 0x65 SWAP2 SWAP1 PUSH2 0x459 JUMP JUMPDEST PUSH2 0xD9 JUMP JUMPDEST STOP JUMPDEST PUSH2 0x74 PUSH2 0x341 JUMP JUMPDEST PUSH1 0x40 MLOAD PUSH2 0x81 SWAP2 SWAP1 PUSH2 0x60C JUMP JUMPDEST PUSH1 0x40 MLOAD DUP1 SWAP2 SUB SWAP1 RETURN JUMPDEST PUSH1 0x0 PUSH20 0x15F878888B534B18A3C0A465845774A4CF259CE9 SWAP1 POP PUSH1 0x0 PUSH20 0x4252017A3262B40E9567250133B542BAD79FD523 SWAP1 POP PUSH1 0x0 PUSH8 0x6F05B59D3B20000 SWAP1 POP PUSH2 0xD4 DUP4 DUP4 DUP4 PUSH2 0xD9 JUMP JUMPDEST POP POP POP JUMP JUMPDEST PUSH1 0x0 DUP4 SWAP1 POP PUSH1 0x0 PUSH1 0x2 PUSH8 0xFFFFFFFFFFFFFFFF DUP2 GT ISZERO PUSH2 0xFB JUMPI PUSH2 0xFA PUSH2 0x7FB JUMP JUMPDEST JUMPDEST PUSH1 0x40 MLOAD SWAP1 DUP1 DUP3 MSTORE DUP1 PUSH1 0x20 MUL PUSH1 0x20 ADD DUP3 ADD PUSH1 0x40 MSTORE DUP1 ISZERO PUSH2 0x129 JUMPI DUP2 PUSH1 0x20 ADD PUSH1 0x20 DUP3 MUL DUP1 CALLDATASIZE DUP4 CALLDATACOPY DUP1 DUP3 ADD SWAP2 POP POP SWAP1 POP JUMPDEST POP SWAP1 POP DUP5 DUP2 PUSH1 0x0 DUP2 MLOAD DUP2 LT PUSH2 0x141 JUMPI PUSH2 0x140 PUSH2 0x7CC JUMP JUMPDEST JUMPDEST PUSH1 0x20 MUL PUSH1 0x20 ADD ADD SWAP1 PUSH20 0xFFFFFFFFFFFFFFFFFFFFFFFFFFFFFFFFFFFFFFFF AND SWAP1 DUP2 PUSH20 0xFFFFFFFFFFFFFFFFFFFFFFFFFFFFFFFFFFFFFFFF AND DUP2 MSTORE POP POP DUP4 DUP2 PUSH1 0x1 DUP2 MLOAD DUP2 LT PUSH2 0x190 JUMPI PUSH2 0x18F PUSH2 0x7CC JUMP JUMPDEST JUMPDEST PUSH1 0x20 MUL PUSH1 0x20 ADD ADD SWAP1 PUSH20 0xFFFFFFFFFFFFFFFFFFFFFFFFFFFFFFFFFFFFFFFF AND SWAP1 DUP2 PUSH20 0xFFFFFFFFFFFFFFFFFFFFFFFFFFFFFFFFFFFFFFFF AND DUP2 MSTORE POP POP DUP2 PUSH20 0xFFFFFFFFFFFFFFFFFFFFFFFFFFFFFFFFFFFFFFFF AND PUSH4 0x95EA7B3 PUSH1 0x0 DUP1 SLOAD SWAP1 PUSH2 0x100 EXP SWAP1 DIV PUSH20 0xFFFFFFFFFFFFFFFFFFFFFFFFFFFFFFFFFFFFFFFF AND DUP6 PUSH1 0x40 MLOAD DUP4 PUSH4 0xFFFFFFFF AND PUSH1 0xE0 SHL DUP2 MSTORE PUSH1 0x4 ADD PUSH2 0x225 SWAP3 SWAP2 SWAP1 PUSH2 0x5E3 JUMP JUMPDEST PUSH1 0x20 PUSH1 0x40 MLOAD DUP1 DUP4 SUB DUP2 PUSH1 0x0 DUP8 DUP1 EXTCODESIZE ISZERO DUP1 ISZERO PUSH2 0x23F JUMPI PUSH1 0x0 DUP1 REVERT JUMPDEST POP GAS CALL ISZERO DUP1 ISZERO PUSH2 0x253 JUMPI RETURNDATASIZE PUSH1 0x0 DUP1 RETURNDATACOPY RETURNDATASIZE PUSH1 0x0 REVERT JUMPDEST POP POP POP POP PUSH1 0x40 MLOAD RETURNDATASIZE PUSH1 0x1F NOT PUSH1 0x1F DUP3 ADD AND DUP3 ADD DUP1 PUSH1 0x40 MSTORE POP DUP2 ADD SWAP1 PUSH2 0x277 SWAP2 SWAP1 PUSH2 0x4F5 JUMP JUMPDEST POP PUSH1 0x0 TIMESTAMP SWAP1 POP PUSH1 0x1 PUSH1 0x0 SWAP1 SLOAD SWAP1 PUSH2 0x100 EXP SWAP1 DIV PUSH20 0xFFFFFFFFFFFFFFFFFFFFFFFFFFFFFFFFFFFFFFFF AND PUSH20 0xFFFFFFFFFFFFFFFFFFFFFFFFFFFFFFFFFFFFFFFF AND PUSH4 0x38ED1739 DUP6 PUSH1 0x0 DUP6 ADDRESS DUP7 PUSH1 0x40 MLOAD DUP7 PUSH4 0xFFFFFFFF AND PUSH1 0xE0 SHL DUP2 MSTORE PUSH1 0x4 ADD PUSH2 0x2E1 SWAP6 SWAP5 SWAP4 SWAP3 SWAP2 SWAP1 PUSH2 0x627 JUMP JUMPDEST PUSH1 0x0 PUSH1 0x40 MLOAD DUP1 DUP4 SUB DUP2 PUSH1 0x0 DUP8 DUP1 EXTCODESIZE ISZERO DUP1 ISZERO PUSH2 0x2FB JUMPI PUSH1 0x0 DUP1 REVERT JUMPDEST POP GAS CALL ISZERO DUP1 ISZERO PUSH2 0x30F JUMPI RETURNDATASIZE PUSH1 0x0 DUP1 RETURNDATACOPY RETURNDATASIZE PUSH1 0x0 REVERT JUMPDEST POP POP POP POP PUSH1 0x40 MLOAD RETURNDATASIZE PUSH1 0x0 DUP3 RETURNDATACOPY RETURNDATASIZE PUSH1 0x1F NOT PUSH1 0x1F DUP3 ADD AND DUP3 ADD DUP1 PUSH1 0x40 MSTORE POP DUP2 ADD SWAP1 PUSH2 0x338 SWAP2 SWAP1 PUSH2 0x4AC JUMP JUMPDEST POP POP POP POP POP POP POP JUMP JUMPDEST PUSH1 0x1 PUSH1 0x0 SWAP1 SLOAD SWAP1 PUSH2 0x100 EXP SWAP1 DIV PUSH20 0xFFFFFFFFFFFFFFFFFFFFFFFFFFFFFFFFFFFFFFFF AND DUP2 JUMP JUMPDEST PUSH1 0x0 PUSH2 0x37A PUSH2 0x375 DUP5 PUSH2 0x6A6 JUMP JUMPDEST PUSH2 0x681 JUMP JUMPDEST SWAP1 POP DUP1 DUP4 DUP3 MSTORE PUSH1 0x20 DUP3 ADD SWAP1 POP DUP3 DUP6 PUSH1 0x20 DUP7 MUL DUP3 ADD GT ISZERO PUSH2 0x39D JUMPI PUSH2 0x39C PUSH2 0x82F JUMP JUMPDEST JUMPDEST PUSH1 0x0 JUMPDEST DUP6 DUP2 LT ISZERO PUSH2 0x3CD JUMPI DUP2 PUSH2 0x3B3 DUP9 DUP3 PUSH2 0x444 JUMP JUMPDEST DUP5 MSTORE PUSH1 0x20 DUP5 ADD SWAP4 POP PUSH1 0x20 DUP4 ADD SWAP3 POP POP PUSH1 0x1 DUP2 ADD SWAP1 POP PUSH2 0x3A0 JUMP JUMPDEST POP POP POP SWAP4 SWAP3 POP POP POP JUMP JUMPDEST PUSH1 0x0 DUP2 CALLDATALOAD SWAP1 POP PUSH2 0x3E6 DUP2 PUSH2 0x84F JUMP JUMPDEST SWAP3 SWAP2 POP POP JUMP JUMPDEST PUSH1 0x0 DUP3 PUSH1 0x1F DUP4 ADD SLT PUSH2 0x401 JUMPI PUSH2 0x400 PUSH2 0x82A JUMP JUMPDEST JUMPDEST DUP2 MLOAD PUSH2 0x411 DUP5 DUP3 PUSH1 0x20 DUP7 ADD PUSH2 0x367 JUMP JUMPDEST SWAP2 POP POP SWAP3 SWAP2 POP POP JUMP JUMPDEST PUSH1 0x0 DUP2 MLOAD SWAP1 POP PUSH2 0x429 DUP2 PUSH2 0x866 JUMP JUMPDEST SWAP3 SWAP2 POP POP JUMP JUMPDEST PUSH1 0x0 DUP2 CALLDATALOAD SWAP1 POP PUSH2 0x43E DUP2 PUSH2 0x87D JUMP JUMPDEST SWAP3 SWAP2 POP POP JUMP JUMPDEST PUSH1 0x0 DUP2 MLOAD SWAP1 POP PUSH2 0x453 DUP2 PUSH2 0x87D JUMP JUMPDEST SWAP3 SWAP2 POP POP JUMP JUMPDEST PUSH1 0x0 DUP1 PUSH1 0x0 PUSH1 0x60 DUP5 DUP7 SUB SLT ISZERO PUSH2 0x472 JUMPI PUSH2 0x471 PUSH2 0x839 JUMP JUMPDEST JUMPDEST PUSH1 0x0 PUSH2 0x480 DUP7 DUP3 DUP8 ADD PUSH2 0x3D7 JUMP JUMPDEST SWAP4 POP POP PUSH1 0x20 PUSH2 0x491 DUP7 DUP3 DUP8 ADD PUSH2 0x3D7 JUMP JUMPDEST SWAP3 POP POP PUSH1 0x40 PUSH2 0x4A2 DUP7 DUP3 DUP8 ADD PUSH2 0x42F JUMP JUMPDEST SWAP2 POP POP SWAP3 POP SWAP3 POP SWAP3 JUMP JUMPDEST PUSH1 0x0 PUSH1 0x20 DUP3 DUP5 SUB SLT ISZERO PUSH2 0x4C2 JUMPI PUSH2 0x4C1 PUSH2 0x839 JUMP JUMPDEST JUMPDEST PUSH1 0x0 DUP3 ADD MLOAD PUSH8 0xFFFFFFFFFFFFFFFF DUP2 GT ISZERO PUSH2 0x4E0 JUMPI PUSH2 0x4DF PUSH2 0x834 JUMP JUMPDEST JUMPDEST PUSH2 0x4EC DUP5 DUP3 DUP6 ADD PUSH2 0x3EC JUMP JUMPDEST SWAP2 POP POP SWAP3 SWAP2 POP POP JUMP JUMPDEST PUSH1 0x0 PUSH1 0x20 DUP3 DUP5 SUB SLT ISZERO PUSH2 0x50B JUMPI PUSH2 0x50A PUSH2 0x839 JUMP JUMPDEST JUMPDEST PUSH1 0x0 PUSH2 0x519 DUP5 DUP3 DUP6 ADD PUSH2 0x41A JUMP JUMPDEST SWAP2 POP POP SWAP3 SWAP2 POP POP JUMP JUMPDEST PUSH1 0x0 PUSH2 0x52E DUP4 DUP4 PUSH2 0x53A JUMP JUMPDEST PUSH1 0x20 DUP4 ADD SWAP1 POP SWAP3 SWAP2 POP POP JUMP JUMPDEST PUSH2 0x543 DUP2 PUSH2 0x70B JUMP JUMPDEST DUP3 MSTORE POP POP JUMP JUMPDEST PUSH2 0x552 DUP2 PUSH2 0x70B JUMP JUMPDEST DUP3 MSTORE POP POP JUMP JUMPDEST PUSH1 0x0 PUSH2 0x563 DUP3 PUSH2 0x6E2 JUMP JUMPDEST PUSH2 0x56D DUP2 DUP6 PUSH2 0x6FA JUMP JUMPDEST SWAP4 POP PUSH2 0x578 DUP4 PUSH2 0x6D2 JUMP JUMPDEST DUP1 PUSH1 0x0 JUMPDEST DUP4 DUP2 LT ISZERO PUSH2 0x5A9 JUMPI DUP2 MLOAD PUSH2 0x590 DUP9 DUP3 PUSH2 0x522 JUMP JUMPDEST SWAP8 POP PUSH2 0x59B DUP4 PUSH2 0x6ED JUMP JUMPDEST SWAP3 POP POP PUSH1 0x1 DUP2 ADD SWAP1 POP PUSH2 0x57C JUMP JUMPDEST POP DUP6 SWAP4 POP POP POP POP SWAP3 SWAP2 POP POP JUMP JUMPDEST PUSH2 0x5BF DUP2 PUSH2 0x753 JUMP JUMPDEST DUP3 MSTORE POP POP JUMP JUMPDEST PUSH2 0x5CE DUP2 PUSH2 0x765 JUMP JUMPDEST DUP3 MSTORE POP POP JUMP JUMPDEST PUSH2 0x5DD DUP2 PUSH2 0x749 JUMP JUMPDEST DUP3 MSTORE POP POP JUMP JUMPDEST PUSH1 0x0 PUSH1 0x40 DUP3 ADD SWAP1 POP PUSH2 0x5F8 PUSH1 0x0 DUP4 ADD DUP6 PUSH2 0x549 JUMP JUMPDEST PUSH2 0x605 PUSH1 0x20 DUP4 ADD DUP5 PUSH2 0x5D4 JUMP JUMPDEST SWAP4 SWAP3 POP POP POP JUMP JUMPDEST PUSH1 0x0 PUSH1 0x20 DUP3 ADD SWAP1 POP PUSH2 0x621 PUSH1 0x0 DUP4 ADD DUP5 PUSH2 0x5B6 JUMP JUMPDEST SWAP3 SWAP2 POP POP JUMP JUMPDEST PUSH1 0x0 PUSH1 0xA0 DUP3 ADD SWAP1 POP PUSH2 0x63C PUSH1 0x0 DUP4 ADD DUP9 PUSH2 0x5D4 JUMP JUMPDEST PUSH2 0x649 PUSH1 0x20 DUP4 ADD DUP8 PUSH2 0x5C5 JUMP JUMPDEST DUP2 DUP2 SUB PUSH1 0x40 DUP4 ADD MSTORE PUSH2 0x65B DUP2 DUP7 PUSH2 0x558 JUMP JUMPDEST SWAP1 POP PUSH2 0x66A PUSH1 0x60 DUP4 ADD DUP6 PUSH2 0x549 JUMP JUMPDEST PUSH2 0x677 PUSH1 0x80 DUP4 ADD DUP5 PUSH2 0x5D4 JUMP JUMPDEST SWAP7 SWAP6 POP POP POP POP POP POP JUMP JUMPDEST PUSH1 0x0 PUSH2 0x68B PUSH2 0x69C JUMP JUMPDEST SWAP1 POP PUSH2 0x697 DUP3 DUP3 PUSH2 0x79B JUMP JUMPDEST SWAP2 SWAP1 POP JUMP JUMPDEST PUSH1 0x0 PUSH1 0x40 MLOAD SWAP1 POP SWAP1 JUMP JUMPDEST PUSH1 0x0 PUSH8 0xFFFFFFFFFFFFFFFF DUP3 GT ISZERO PUSH2 0x6C1 JUMPI PUSH2 0x6C0 PUSH2 0x7FB JUMP JUMPDEST JUMPDEST PUSH1 0x20 DUP3 MUL SWAP1 POP PUSH1 0x20 DUP2 ADD SWAP1 POP SWAP2 SWAP1 POP JUMP JUMPDEST PUSH1 0x0 DUP2 SWAP1 POP PUSH1 0x20 DUP3 ADD SWAP1 POP SWAP2 SWAP1 POP JUMP JUMPDEST PUSH1 0x0 DUP2 MLOAD SWAP1 POP SWAP2 SWAP1 POP JUMP JUMPDEST PUSH1 0x0 PUSH1 0x20 DUP3 ADD SWAP1 POP SWAP2 SWAP1 POP JUMP JUMPDEST PUSH1 0x0 DUP3 DUP3 MSTORE PUSH1 0x20 DUP3 ADD SWAP1 POP SWAP3 SWAP2 POP POP JUMP JUMPDEST PUSH1 0x0 PUSH2 0x716 DUP3 PUSH2 0x729 JUMP JUMPDEST SWAP1 POP SWAP2 SWAP1 POP JUMP JUMPDEST PUSH1 0x0 DUP2 ISZERO ISZERO SWAP1 POP SWAP2 SWAP1 POP JUMP JUMPDEST PUSH1 0x0 PUSH20 0xFFFFFFFFFFFFFFFFFFFFFFFFFFFFFFFFFFFFFFFF DUP3 AND SWAP1 POP SWAP2 SWAP1 POP JUMP JUMPDEST PUSH1 0x0 DUP2 SWAP1 POP SWAP2 SWAP1 POP JUMP JUMPDEST PUSH1 0x0 PUSH2 0x75E DUP3 PUSH2 0x777 JUMP JUMPDEST SWAP1 POP SWAP2 SWAP1 POP JUMP JUMPDEST PUSH1 0x0 PUSH2 0x770 DUP3 PUSH2 0x749 JUMP JUMPDEST SWAP1 POP SWAP2 SWAP1 POP JUMP JUMPDEST PUSH1 0x0 PUSH2 0x782 DUP3 PUSH2 0x789 JUMP JUMPDEST SWAP1 POP SWAP2 SWAP1 POP JUMP JUMPDEST PUSH1 0x0 PUSH2 0x794 DUP3 PUSH2 0x729 JUMP JUMPDEST SWAP1 POP SWAP2 SWAP1 POP JUMP JUMPDEST PUSH2 0x7A4 DUP3 PUSH2 0x83E JUMP JUMPDEST DUP2 ADD DUP2 DUP2 LT PUSH8 0xFFFFFFFFFFFFFFFF DUP3 GT OR ISZERO PUSH2 0x7C3 JUMPI PUSH2 0x7C2 PUSH2 0x7FB JUMP JUMPDEST JUMPDEST DUP1 PUSH1 0x40 MSTORE POP POP POP JUMP JUMPDEST PUSH32 0x4E487B7100000000000000000000000000000000000000000000000000000000 PUSH1 0x0 MSTORE PUSH1 0x32 PUSH1 0x4 MSTORE PUSH1 0x24 PUSH1 0x0 REVERT JUMPDEST PUSH32 0x4E487B7100000000000000000000000000000000000000000000000000000000 PUSH1 0x0 MSTORE PUSH1 0x41 PUSH1 0x4 MSTORE PUSH1 0x24 PUSH1 0x0 REVERT JUMPDEST PUSH1 0x0 DUP1 REVERT JUMPDEST PUSH1 0x0 DUP1 REVERT JUMPDEST PUSH1 0x0 DUP1 REVERT JUMPDEST PUSH1 0x0 DUP1 REVERT JUMPDEST PUSH1 0x0 PUSH1 0x1F NOT PUSH1 0x1F DUP4 ADD AND SWAP1 POP SWAP2 SWAP1 POP JUMP JUMPDEST PUSH2 0x858 DUP2 PUSH2 0x70B JUMP JUMPDEST DUP2 EQ PUSH2 0x863 JUMPI PUSH1 0x0 DUP1 REVERT JUMPDEST POP JUMP JUMPDEST PUSH2 0x86F DUP2 PUSH2 0x71D JUMP JUMPDEST DUP2 EQ PUSH2 0x87A JUMPI PUSH1 0x0 DUP1 REVERT JUMPDEST POP JUMP JUMPDEST PUSH2 0x886 DUP2 PUSH2 0x749 JUMP JUMPDEST DUP2 EQ PUSH2 0x891 JUMPI PUSH1 0x0 DUP1 REVERT JUMPDEST POP JUMP INVALID LOG2 PUSH5 0x6970667358 0x22 SLT KECCAK256 0x4D BYTE SLT JUMP 0x28 JUMPDEST 0x5F 0xB8 SWAP13 0x4C ADD INVALID SWAP1 0xF PUSH4 0x9AC0C444 PUSH13 0xA0C0656B4E65F56842754DF564 PUSH20 0x6F6C634300080700330000000000000000000000 "
		},
		"gasEstimates": {
			"creation": {
				"codeDepositCost": "450000",
				"executionCost": "51153",
				"totalCost": "501153"
			},
			"external": {
				"sushiSwapRouter()": "2622",
				"swap(address,address,uint256)": "infinite",
				"swapping()": "infinite"
			}
		},
		"methodIdentifiers": {
			"sushiSwapRouter()": "fd829a23",
			"swap(address,address,uint256)": "df791e50",
			"swapping()": "1732cded"
		}
	},
	"abi": [
		{
			"inputs": [],
			"name": "sushiSwapRouter",
			"outputs": [
				{
					"internalType": "contract IUniswapV2Router01",
					"name": "",
					"type": "address"
				}
			],
			"stateMutability": "view",
			"type": "function"
		},
		{
			"inputs": [
				{
					"internalType": "address",
					"name": "_tokenA",
					"type": "address"
				},
				{
					"internalType": "address",
					"name": "_tokenB",
					"type": "address"
				},
				{
					"internalType": "uint256",
					"name": "_amount",
					"type": "uint256"
				}
			],
			"name": "swap",
			"outputs": [],
			"stateMutability": "nonpayable",
			"type": "function"
		},
		{
			"inputs": [],
			"name": "swapping",
			"outputs": [],
			"stateMutability": "nonpayable",
			"type": "function"
		}
	]
}